:100000000C942A000C9447000C9447000C94470071
:100010000C9447000C9447000C9447000C94F10C8E
:100020000C9447000C9447000C9447000C94470034
:100030000C9447000C9447000C9447000C94470024
:100040000C946B2E0C9447000C9447000C944700C2
:100050000C94470011241FBECFE5D8E0DEBFCDBF12
:1000600010E0A0E6B0E0ECE8FCE602C005900D92DE
:10007000AC3DB107D9F717E0ACEDB0E001C01D927F
:10008000A637B107E1F70E9479320C9444360C94FC
:100090000000EF92FF920F931F937B018C0120E0F1
:1000A00030E040E05FE40E94490388238CF0C801FF
:1000B000B70120E030E040E05FE40E94C1010E940F
:1000C000A9039B01AC01205030404040504806C07D
:1000D000C801B7010E94A9039B01AC01B901CA0183
:1000E0001F910F91FF90EF900895A0E0B0E0EBE733
:1000F000F0E00C94EE35DC012B01FA019C9192307A
:1001000008F439C1EB018881823008F433C194309E
:1001100069F4843009F02FC111969C91119789815F
:10012000981709F428C1A8EBB0E025C1843009F480
:1001300021C18230A9F4923009F01DC19A01AD01AC
:1001400088E0EA010990AE01E90109929E0181501F
:10015000C1F7E201898111969C918923818308C1AD
:10016000923009F407C112962D903C901397EB0141
:100170008A819B811496AD90BD90CD90DC901797AD
:10018000EC80FD800E811F819101281B390BB90184
:1001900037FF04C066277727621B730B6032710537
:1001A0000CF061C0121613066CF537014801062EDB
:1001B00004C096948794779467940A94D2F721E0C8
:1001C00030E040E050E004C0220F331F441F551FB1
:1001D0006A95D2F721503040404050402E213F21B7
:1001E00040235123211531054105510521F021E01E
:1001F00030E040E050E079018A01E628F72808293C
:1002000019293CC0232BD1F1260E371E350146019A
:10021000062E04C096948794779467940A94D2F734
:1002200021E030E040E050E004C0220F331F441FC3
:10023000551F6A95D2F721503040404050402A2146
:100240003B214C215D21211531054105510521F04E
:1002500021E030E040E050E059016A01A628B728CB
:10026000C828D9280BC0821593052CF01C01AA249C
:10027000BB24650103C0EE24FF24870111969C91E5
:10028000D20111968C91981709F445C0992339F041
:10029000A80197012A193B094C095D0906C0A6016E
:1002A00095012E193F09400B510B57FD08C01182D3
:1002B0003382228224833583468357831DC081E0A5
:1002C00081833382228288279927DC01821B930B4A
:1002D000A40BB50B84839583A683B7830DC0220F2F
:1002E000331F441F551F24833583468357838281E0
:1002F000938101979383828324813581468157813D
:10030000DA01C9010197A109B1098F5F9F4FAF4F72
:10031000BF4328F30BC0918333822282EA0CFB1C7B
:100320000C1D1D1DE482F5820683178383E0808304
:10033000248135814681578157FF1AC0C901AA27F8
:1003400097FDA095BA2F81709070A070B0705695EF
:10035000479537952795822B932BA42BB52B848318
:100360009583A683B7838281938101969383828349
:10037000DF0101C0D201CD01CDB7DEB7E2E10C94BF
:100380000A36A0E2B0E0E7ECF1E00C94FA356983BC
:100390007A838B839C832D833E834F835887E9E048
:1003A000EE2EF12CEC0EFD1ECE010196B7010E943F
:1003B000D2048E010F5E1F4FCE010596B8010E9438
:1003C000D2048A8991E089278A8BC701B801AE01DE
:1003D000475E5F4F0E9475000E94FD03A096E6E015
:1003E0000C941636A0E2B0E0E8EFF1E00C94FA3598
:1003F00069837A838B839C832D833E834F835887C5
:10040000F9E0EF2EF12CEC0EFD1ECE010196B701A6
:100410000E94D2048E010F5E1F4FCE010596B801D7
:100420000E94D204C701B801AE01475E5F4F0E942F
:1004300075000E94FD03A096E6E00C941636A0E23B
:10044000B0E0E5E2F2E00C94EE3569837A838B83C9
:100450009C832D833E834F835887CE010196BE0136
:10046000675F7F4F0E94D204CE010596BE016F5E8A
:100470007F4F0E94D2049985923088F0898982301A
:10048000C8F0943019F4823051F404C0843029F457
:10049000923081F488EB90E0C6C0923049F420E0BD
:1004A0009A858A89981321E02A87CE010996BBC0D4
:1004B000823049F420E09A858A89981321E02A8BBA
:1004C000CE014196B0C02D843E844F8458886D88FB
:1004D0007E888F88988CEE24FF248701AA24BB2471
:1004E000650140E050E060E070E0E0E0F0E0C10174
:1004F00081709070892BE9F0E60CF71C081D191D1E
:100500009A01AB012A0D3B1D4C1D5D1D80E090E062
:10051000A0E0B0E0E614F7040805190520F481E036
:1005200090E0A0E0B0E0BA01A901480F591F6A1F8E
:100530007B1FAA0CBB1CCC1CDD1C97FE08C081E0F5
:1005400090E0A0E0B0E0A82AB92ACA2ADB2A3196B6
:10055000E032F10549F0660C771C881C991C569412
:10056000479437942794C3CFFA85EA892B893C892D
:100570008B859C85280F391F2E5F3F4F17C0CA01FE
:1005800081709070892B61F016950795F794E79428
:1005900080E090E0A0E0B0E8E82AF92A0A2B1B2BC3
:1005A00076956795579547952F5F3F4F77FDE7CF36
:1005B0000CC0440F551F661F771F17FD4160EE0CDE
:1005C000FF1C001F111F21503040403090E05907A0
:1005D00090E0690790E4790760F32B8F3C8FDB0193
:1005E000CA018F779070A070B07080349105A1051A
:1005F000B10561F447FD0AC0E114F10401051105DC
:1006000029F0405C5F4F6F4F7F4F40781A8EFE1786
:1006100011F081E08A8F4D8F5E8F6F8F78A383E01A
:10062000898FCE0149960E94FD03A096E2E10C94C9
:100630000A36A8E1B0E0EFE1F3E00C94FA35698303
:100640007A838B839C832D833E834F83588789E0F5
:10065000E82EF12CEC0EFD1ECE010196B7010E9492
:10066000D2048E010F5E1F4FCE010596B8010E9485
:10067000D2048985823040F08989823028F0C70110
:10068000B8010E944A0501C08FEF6896E6E00C941D
:100690001636A8E1B0E0EFE4F3E00C94FA35698394
:1006A0007A838B839C832D833E834F83588789E095
:1006B000E82EF12CEC0EFD1ECE010196B7010E9432
:1006C000D2048E010F5E1F4FCE010596B8010E9425
:1006D000D2048985823040F08989823028F0C701B0
:1006E000B8010E944A0501C08FEF6896E6E00C94BD
:1006F0001636A8E1B0E0EFE7F3E00C94FA35698331
:100700007A838B839C832D833E834F83588789E034
:10071000E82EF12CEC0EFD1ECE010196B7010E94D1
:10072000D2048E010F5E1F4FCE010596B8010E94C4
:10073000D2048985823040F08989823028F0C7014F
:10074000B8010E944A0501C081E06896E6E00C9479
:100750001636ACE0B0E0EFEAF3E00C94FE356983C6
:100760007A838B839C83CE010196BE016B5F7F4FA2
:100770000E94D2048D81823061F1823050F1843048
:1007800021F48E81882351F12EC02F81388537FDC9
:1007900020C06E812F3131051CF06623F9F023C093
:1007A0008EE190E0821B930B29853A854B855C8511
:1007B00004C056954795379527958A95D2F76623B5
:1007C000B1F050954095309521953F4F4F4F5F4F79
:1007D0000EC020E030E040E050E009C02FEF3FEFD6
:1007E0004FEF5FE704C020E030E040E050E8B9019F
:1007F000CA012C96E2E00C941A36DF92EF92FF9237
:100800000F931F93FC01E480F58006811781D1804E
:100810008081823048F480E090E0A0E1B0E0E82AF6
:10082000F92A0A2B1B2BA5C0843009F49FC0823003
:1008300021F4EE24FF24870105C0E114F104010531
:10084000110519F4E0E0F0E096C0628173819FEF3A
:10085000623879070CF05BC022E83FEF261B370BAC
:100860002A3131052CF020E030E040E050E02AC091
:10087000B801A701022E04C0769567955795479554
:100880000A94D2F781E090E0A0E0B0E004C0880FC5
:10089000991FAA1FBB1F2A95D2F70197A109B10979
:1008A0008E219F21A023B1230097A105B10521F03E
:1008B00081E090E0A0E0B0E09A01AB01282B392B59
:1008C0004A2B5B2BDA01C9018F779070A070B07052
:1008D00080349105A105B10539F427FF09C0205CDA
:1008E0003F4F4F4F5F4F04C0215C3F4F4F4F5F4F13
:1008F000E0E0F0E02030A0E03A07A0E04A07A0E402
:100900005A0710F0E1E0F0E079018A0127C0603871
:10091000710564F5FB01E158FF4FD801C7018F77DE
:100920009070A070B07080349105A105B10539F4C4
:10093000E7FE0DC080E490E0A0E0B0E004C08FE3EB
:1009400090E0A0E0B0E0E80EF91E0A1F1B1F17FFA1
:1009500005C016950795F794E794319687E01695AC
:100960000795F794E7948A95D1F705C0EE24FF2404
:100970008701EFEFF0E06E2F679566276795902F60
:100980009F77D794DD24D7948E2F8695492F462BB9
:10099000582F5D29B701CA011F910F91FF90EF9069
:1009A000DF900895FC01DB01408151812281622F9B
:1009B0006F7770E0221F2227221F9381892F880FD3
:1009C000822B282F30E0991F9927991F11969C930D
:1009D000119721153105A9F54115510561057105DD
:1009E00011F482E037C082E89FEF13969C938E93B8
:1009F00012979A01AB0167E0220F331F441F551F66
:100A00006A95D1F783E08C930DC0220F331F441FEA
:100A1000551F12968D919C911397019713969C9355
:100A20008E931297203080E0380780E0480780E4FA
:100A3000580758F314962D933D934D935C93179755
:100A400008952F3F310579F4411551056105710570
:100A500019F484E08C93089564FF03C081E08C93C3
:100A600012C01C9210C02F57304013963C932E9307
:100A7000129783E08C9387E0440F551F661F771F02
:100A80008A95D1F7706414964D935D936D937C9322
:100A9000179708951F93DC01FB019C91923008F495
:100AA00047C08081823008F443C0943051F41196DD
:100AB0001C91843099F58181682F70E0611B710968
:100AC0003FC0843021F0923031F48230B9F181811D
:100AD000882389F12DC011961C9111978230F1F075
:100AE00081811817D9F412962D913C911397828128
:100AF00093818217930794F028173907BCF0149656
:100B00008D919D910D90BC91A02D248135814681C0
:100B10005781281739074A075B0718F4112341F05A
:100B20000AC082179307A407B50740F4112319F0F0
:100B300061E070E005C06FEF7FEF02C060E070E041
:100B4000CB011F910895DF93CF93CDB7DEB72797E1
:100B50000FB6F894DEBF0FBECDBF9D838C836E832E
:100B60004F838AE190E00E947B089A838983898180
:100B70009A81009709F46FC08091DC009091DD00AC
:100B8000009741F489819A819093DD008093DC0085
:100B90000E940A088E81823010F081E08E83E98104
:100BA000FA81118E108EE981FA818E81868BE9811E
:100BB000FA818F81878BE981FA818C819D81918374
:100BC000808389819A8102960E94110989819A8184
:100BD0000C960E941109E981FA8189819A81918795
:100BE0008087E981FA8189819A81938B828B8E81BA
:100BF000282F30E085E090E0821B930BE981FA8199
:100C000095878487E981FA8196898091DE0089172A
:100C100028F4E981FA8186898093DE00E981FA81EE
:100C20008689282F30E0C901880F991F880F991FE6
:100C3000880F991F820F931FAC014B515F4F898121
:100C40009A819C012E5F3F4FCA01B9010E94210980
:100C500081E08B8302C08FEF8B838B8127960FB649
:100C6000F894DEBF0FBECDBFCF91DF910895DF9323
:100C7000CF9300D000D000D0CDB7DEB79C838B835C
:100C80007E836D832091DF003091E0008B819C8119
:100C9000820F931F9A8389838091DC009091DD00FD
:100CA00002960E94D909E091DC00F091DD00898173
:100CB0009A81938382832091DF003091E0008981C3
:100CC0009A818217930770F480910B0190910C0127
:100CD0002091DC003091DD002E5F3F4FB9010E9472
:100CE0006D090DC08091090190910A012091DC00ED
:100CF0003091DD002E5F3F4FB9010E946D098D815B
:100D00009E81009761F08091DC009091DD009C0154
:100D1000245F3F4F8D819E81B9010E946D09269607
:100D20000FB6F894DEBF0FBECDBFCF91DF9108950F
:100D3000DF93CF9300D0CDB7DEB73AC0F894E091FF
:100D40001201F0911301868197819A8389838981A9
:100D50009A810C960E94D909789489819A81029689
:100D60000E94D909E981FA8196898091DE0089176C
:100D700028F4E981FA8186898093DE00E981FA818D
:100D80008689282F30E0C901880F991F880F991F85
:100D9000880F991F820F931FAC014B515F4F8981C0
:100DA0009A819C012E5F3F4FCA01B9010E9421091F
:100DB00080910D01882309F0C1CF0F900F90CF9142
:100DC000DF910895DF93CF9300D000D0CDB7DEB789
:100DD0000E9466142091E1003091E200821B930B87
:100DE0009093E4008093E30085C08091DF009091B0
:100DF000E00001969093E0008093DF008091E30093
:100E00009091E40001979093E4008093E300809137
:100E1000DF009091E000009709F064C08091090123
:100E200090910A019A83898380910B0190910C0122
:100E300090930A018093090189819A8190930C0112
:100E400080930B014FC0E0910901F0910A010580E8
:100E5000F681E02D868197819C838B83EB81FC81D9
:100E6000228133818091DF009091E0008217930707
:100E700008F440C0F8948B819C8102960E94D909A5
:100E8000EB81FC8184899589009729F08B819C8175
:100E90000C960E94D9097894EB81FC819689809107
:100EA000DE00891728F4EB81FC8186898093DE00BF
:100EB000EB81FC818689282F30E0C901880F991FBA
:100EC000880F991F880F991F820F931FAC014B51F8
:100ED0005F4F8B819C819C012E5F3F4FCA01B901FE
:100EE0000E942109E0910901F0910A018081882383
:100EF00009F0A9CF8091E3009091E400009709F0F8
:100F000074CF8091DF009091E0009093E200809395
:100F1000E1000F900F900F900F90CF91DF91089507
:100F2000DF93CF9300D0CDB7DEB70E9498060E9422
:100F3000E2060AC08091DE00882309F466C0809131
:100F4000DE0081508093DE008091DE00282F30E0AB
:100F5000C901880F991F880F991F880F991F820F49
:100F6000931FFC01EB51FF4F8081882319F380917F
:100F7000DE00282F30E0C901880F991F880F991FC4
:100F8000880F991F820F931F8B519F4F9A838983DC
:100F9000E981FA810180F281E02D82819381E981EA
:100FA000FA8192838183E981FA8121813281898169
:100FB0009A8103962817390759F4E981FA8101804B
:100FC000F281E02D82819381E981FA81928381838C
:100FD000E981FA810180F281E02D868197819093E9
:100FE000DD008093DC00E091DC00F091DD004081C9
:100FF00051818091DC009091DD00E091DC00F09166
:10100000DD002789622FFA0109950F900F90CF918B
:10101000DF910895DF93CF930F92CDB7DEB719829A
:1010200013C08981282F30E0C901880F991F880FCC
:10103000991F880F991F820F931F8B519F4F0E94FA
:10104000E70889818F5F89838981823050F387EF38
:1010500090E00E94E70880E091E00E94E7088DE0C0
:1010600091E00E94E70887EF90E090930A01809357
:10107000090180E091E090930C0180930B010F90A7
:10108000CF91DF910895DF93CF9300D000D00F92DE
:10109000CDB7DEB79D838C83EC81FD810580F68121
:1010A000E02D868197819B838A838A819B810C9620
:1010B0000E94D9098A819B819C01245F3F4F8DE06A
:1010C00091E0B9010E942109EA81FB819689E091B2
:1010D000DC00F091DD008689981718F081E08983A3
:1010E00001C0198289810F900F900F900F900F907F
:1010F000CF91DF910895DF93CF9300D000D0CDB78B
:10110000DEB79C838B831A8219820E94D013809150
:101110001601909117012B813C81820F931F25E0CE
:101120008C3D920718F520911601309117018B81A3
:101130009C81280F391F8091160190911701821709
:101140009307A0F48091160190911701885E9E4F3D
:101150009A83898320911601309117018B819C819C
:10116000820F931F90931701809316010E94DC1346
:1011700089819A810F900F900F900F90CF91DF91FE
:101180000895DF93CF9300D0CDB7DEB79A838983DC
:101190000F900F90CF91DF910895DF93CF93CDB74C
:1011A000DEB71092170110921601CF91DF910895CA
:1011B000DF93CF93CDB7DEB72091160130911701A1
:1011C0008CED95E0821B930BCF91DF910895DF9317
:1011D000CF9300D0CDB7DEB79A83898389819A8176
:1011E0000396E981FA8192838183E981FA818FEF05
:1011F0009FEF9483838389819A810396E981FA81A1
:101200009683858389819A810396E981FA81908703
:101210008783E981FA8110820F900F90CF91DF913F
:101220000895DF93CF9300D0CDB7DEB79A8389833B
:10123000E981FA81118610860F900F90CF91DF918E
:101240000895DF93CF9300D000D000D0CDB7DEB7A4
:101250009C838B837E836D83EB81FC818181928172
:101260009A838983E981FA8182819381ED81FE816C
:1012700093838283EB81FC8181819281ED81FE8168
:1012800095838483E981FA810280F381E02D8D8149
:101290009E81958384838D819E81E981FA819383E8
:1012A00082838D819E81EB81FC8192838183ED819C
:1012B000FE818B819C8191878087EB81FC8180817D
:1012C0008F5FEB81FC81808326960FB6F894DEBF9A
:1012D0000FBECDBFCF91DF910895DF93CF93CDB7F0
:1012E000DEB728970FB6F894DEBF0FBECDBF9E8342
:1012F0008D8378876F83EF81F885808191819A83D0
:10130000898389819A812FEF8F3F920739F4ED818C
:10131000FE81878190859C838B8318C08D819E81FF
:1013200003969C838B8306C0EB81FC818281938131
:101330009C838B83EB81FC810280F381E02D2081F3
:10134000318189819A818217930770F7EB81FC8143
:1013500082819381EF81F88593838283EF81F88581
:101360000280F381E02D8F81988595838483EF81BE
:10137000F8858B819C81958384838F819885EB810F
:10138000FC8193838283EF81F8858D819E81918793
:101390008087ED81FE8180818F5FED81FE8180837A
:1013A00028960FB6F894DEBF0FBECDBFCF91DF9168
:1013B0000895DF93CF9300D000D0CDB7DEB79C83E4
:1013C0008B83EB81FC81A281B381EB81FC818481E1
:1013D000958115969C938E931497EB81FC81A48143
:1013E000B581EB81FC818281938113969C938E93CE
:1013F0001297EB81FC81808591859A838983E981AD
:10140000FA81218132818B819C812817390741F42F
:10141000EB81FC8184819581E981FA8192838183CA
:10142000EB81FC8111861086E981FA8180818150EF
:10143000E981FA8180830F900F900F900F90CF91E8
:10144000DF910895DF93CF93CDB7DEB728970FB61E
:10145000F894DEBF0FBECDBF9C838B837E836D83EC
:1014600058874F83EB81FC8181E180838B819C8154
:1014700001979C838B83EB81FC8182E280838B814B
:101480009C8101979C838B83EB81FC8183E3808328
:101490008B819C8101979C838B838D819E819A8314
:1014A00089838981EB81FC8180838B819C81019779
:1014B0009C838B8389819A81892F99279A83898339
:1014C0008981EB81FC8180838B819C8101979C8346
:1014D0008B83EB81FC8110828B819C8101979C83A3
:1014E0008B83EB81FC8180E880838B819C810197D9
:1014F0009C838B83EB81FC8110828B819C81019783
:101500009C838B83EB81FC8182E080838B819C8137
:1015100001979C838B83EB81FC8183E080838B81AB
:101520009C8101979C838B83EB81FC8184E0808389
:101530008B819C8101979C838B83EB81FC8185E06F
:1015400080838B819C8101979C838B83EB81FC81C1
:1015500086E080838B819C8101979C838B83EB81C8
:10156000FC8187E080838B819C8101979C838B83A6
:10157000EB81FC8188E080838B819C8101979C8337
:101580008B83EB81FC8189E080838B819C81019737
:101590009C838B83EB81FC8180E180838B819C81A8
:1015A00001979C838B83EB81FC8181E180838B811C
:1015B0009C8101979C838B83EB81FC8182E18083FA
:1015C0008B819C8101979C838B83EB81FC8183E1E0
:1015D00080838B819C8101979C838B83EB81FC8131
:1015E00084E180838B819C8101979C838B83EB8139
:1015F000FC8185E180838B819C8101979C838B8317
:10160000EB81FC8186E180838B819C8101979C83A7
:101610008B83EB81FC8187E180838B819C810197A7
:101620009C838B83EB81FC8188E180838B819C810F
:1016300001979C838B83EB81FC8189E180838B8183
:101640009C8101979C838B83EB81FC8180E280836A
:101650008B819C8101979C838B83EB81FC8181E250
:1016600080838B819C8101979C838B83EB81FC81A0
:1016700082E280838B819C8101979C838B83EB81A9
:10168000FC8183E280838B819C8101979C838B8387
:101690008F8198859A8389838981EB81FC818083FE
:1016A0008B819C8101979C838B8389819A81892F6F
:1016B00099279A8389838981EB81FC8180838B813F
:1016C0009C8101979C838B83EB81FC8186E28083E4
:1016D0008B819C8101979C838B83EB81FC8187E2CA
:1016E00080838B819C8101979C838B83EB81FC8120
:1016F00088E280838B819C8101979C838B83EB8123
:10170000FC8189E280838B819C8101979C838B8300
:10171000EB81FC8180E380838B819C8101979C839A
:101720008B83EB81FC8181E380838B819C8101979A
:101730009C838B838B819C8128960FB6F894DEBFA7
:101740000FBECDBFCF91DF910895DF93CF93CDB77B
:10175000DEB70E94950CA091F406B091F506CD91EC
:10176000CDBFDD91DEBFFF91EF91DF91CF91BF91B2
:10177000AF919F918F917F916F915F914F913F9129
:101780002F911F910F91FF90EF90DF90CF90BF901E
:10179000AF909F908F907F906F905F904F903F9011
:1017A0002F901F900F900FBE0F90089581E0CF9162
:1017B000DF910895DF93CF93CDB7DEB7CF91DF915F
:1017C00008950F920FB6F8940F921F9211242F9242
:1017D0003F924F925F926F927F928F929F92AF92C1
:1017E000BF92CF92DF92EF92FF920F931F932F93AE
:1017F0003F934F935F936F937F938F939F93AF9399
:10180000BF93CF93DF93EF93FF93A091F406B09132
:10181000F5060DB60D920EB60D920E947015A091B0
:10182000F406B091F506CD91CDBFDD91DEBFFF91FD
:10183000EF91DF91CF91BF91AF919F918F917F9168
:101840006F915F914F913F912F911F910F91FF9059
:10185000EF90DF90CF90BF90AF909F908F907F9050
:101860006F905F904F903F902F901F900F900FBE02
:101870000F9008950F920FB6F8940F921F921124B3
:101880002F923F924F925F926F927F928F929F9290
:10189000AF92BF92CF92DF92EF92FF920F931F937E
:1018A0002F933F934F935F936F937F938F939F9368
:1018B000AF93BF93CF93DF93EF93FF93A091F40681
:1018C000B091F5060DB60D920EB60D920E949B14C6
:1018D0000E947015A091F406B091F506CD91CDBF90
:1018E000DD91DEBFFF91EF91DF91CF91BF91AF917D
:1018F0009F918F917F916F915F914F913F912F9128
:101900001F910F91FF90EF90DF90CF90BF90AF901D
:101910009F908F907F906F905F904F903F902F900F
:101920001F900F900FBE0F900895DF93CF9300D0BC
:1019300000D000D0CDB7DEB780E49FE1A0E0B0E0FA
:101940008B839C83AD83BE838B819C81AD81BE8163
:10195000689415F8B695A795979587951694D1F73D
:101960008B839C83AD83BE838B819C81AD81BE8143
:101970000197A109B1098B839C83AD83BE838B81C1
:1019800089838B819C81AD81BE81892F9A2FAB2F5A
:10199000BB278B839C83AD83BE838B818A83EBE4DF
:1019A000F0E08A818083EAE4F0E0898180838BE043
:1019B0008983EEE4F0E089818083E9E5F0E08081CD
:1019C0008983898180618983E9E5F0E08981808369
:1019D00026960FB6F894DEBF0FBECDBFCF91DF9134
:1019E00008950E943A0C1895DF93CF93CDB7DEB7D8
:1019F00028970FB6F894DEBF0FBECDBF8F836887E0
:101A00001A8219828F81882309F48CC08FE190E0BB
:101A10000E947B089E838D838D819E81009709F4AF
:101A200081C08F81282F30E08885882F90E0AC011D
:101A3000249FC001259F900D349F900D1124019685
:101A40009C838B838B819C810E947B08ED81FE812E
:101A500091838083ED81FE8180819181009709F4DB
:101A60005DC0ED81FE81408151818F81282F30E062
:101A70008885882F90E0BC01269FC001279F900D8C
:101A8000369F900D1124840F951FED81FE81938365
:101A90008283ED81FE81128EED81FE8180819181B4
:101AA000ED81FE8195838483ED81FE8140815181AA
:101AB0008F81882F90E09C01215030408885882FAD
:101AC00090E0BC01269FC001279F900D369F900D8E
:101AD0001124840F951FED81FE8197838683ED810C
:101AE000FE818F81838FED81FE818885848FED81DA
:101AF000FE818FEF858FED81FE818FEF868F8D8147
:101B00009E8108960E94E7088D819E8141960E94E1
:101B1000E7088D819E819A83898304C08D819E818F
:101B20000E94C10889819A8128960FB6F894DEBF79
:101B30000FBECDBFCF91DF910895DF93CF9300D03B
:101B400000D0CDB7DEB78B836C838B8160E00E94C1
:101B5000F40C9A83898389819A81009721F0E98125
:101B6000FA818C81828F89819A810F900F900F90DA
:101B70000F90CF91DF910895DF93CF93CDB7DEB76C
:101B80002C970FB6F894DEBF0FBECDBF9E838D831A
:101B900078876F835A8749872B8719820FB6F89405
:101BA0000F92ED81FE81928DED81FE81838D9817DC
:101BB000D8F48D819E812F813885B9014B850E9493
:101BC000F70FED81FE818189882349F08D819E8107
:101BD00041960E940C16813011F40E94E10B0F9087
:101BE0000FBE81E08C875CC089859A85009721F4BF
:101BF0000F900FBE1C8654C08981882331F4CE011A
:101C000002960E94741681E089830F900FBE0E9495
:101C1000D0130FB6F8940F92ED81FE81858D8F3F22
:101C200019F4ED81FE81158EED81FE81868D8F3F49
:101C300019F4ED81FE81168E0F900FBECE01029633
:101C40009E01275F3F4FB9010E948D16882309F539
:101C50008D819E810E945B118823A1F08D819E81E0
:101C6000089629853A85B9010E94D6158D819E81F5
:101C70000E94D4100E94DC13882309F08FCF0E94A9
:101C8000E10B8CCF8D819E810E94D4100E94DC13C9
:101C900085CF8D819E810E94D4100E94DC131C860A
:101CA0008C852C960FB6F894DEBF0FBECDBFCF91BA
:101CB000DF910895DF93CF93CDB7DEB729970FB6A5
:101CC000F894DEBF0FBECDBF9C838B837E836D8374
:101CD00058874F8329871982EB81FC81928DEB8194
:101CE000FC81838D981740F58B819C812D813E81ED
:101CF000B90149850E94F70FEB81FC81868D8F3FEA
:101D000089F4EB81FC818189882399F08B819C8106
:101D100041960E940C16882361F0EF81F88581E0DE
:101D2000808307C0EB81FC81868D8F5FEB81FC8116
:101D3000868F81E08A8301C01A828A8129960FB634
:101D4000F894DEBF0FBECDBFCF91DF910895DF9332
:101D5000CF93CDB7DEB72E970FB6F894DEBF0FBE88
:101D6000CDBF98878F837A8769875C874B872D875C
:101D70001B820FB6F8940F92EF81F885828D88232D
:101D800009F43FC0EF81F885868197819A83898322
:101D90008F81988529853A85B9010E948C108D859F
:101DA0008823B1F4EF81F885828D8150EF81F88529
:101DB000828FEF81F88580858823F1F08F81988567
:101DC00008960E940C168130B9F40E94E10B14C0F1
:101DD000EF81F88589819A8197838683EF81F885E1
:101DE0008189882349F08F81988541960E940C163D
:101DF000882311F00E94E10B0F900FBE81E08E87C7
:101E00005CC08B859C85009721F40F900FBE1E86C9
:101E100054C08B81882331F4CE0104960E9474163D
:101E200081E08B830F900FBE0E94D0130FB6F89401
:101E30000F92EF81F885858D8F3F19F4EF81F8853A
:101E4000158EEF81F885868D8F3F19F4EF81F88527
:101E5000168E0F900FBECE0104969E01255F3F4F58
:101E6000B9010E948D16882309F58F8198850E94FB
:101E700028118823A1F08F81988541962B853C8578
:101E8000B9010E94D6158F8198850E94D4100E94B6
:101E9000DC13882309F06DCF0E94E10B6ACF8F819C
:101EA00098850E94D4100E94DC1363CF8F8198859F
:101EB0000E94D4100E94DC131E868E852E960FB6CB
:101EC000F894DEBF0FBECDBFCF91DF910895DF93B1
:101ED000CF93CDB7DEB728970FB6F894DEBF0FBE0D
:101EE000CDBF9C838B837E836D8358874F831982FC
:101EF000EB81FC81828D882371F18B819C812D8106
:101F00003E81B9010E948C10EB81FC81828D815051
:101F1000EB81FC81828FEB81FC81858D8F3F89F481
:101F2000EB81FC818085882399F08B819C810896C8
:101F30000E940C16882361F0EF81F88581E0808390
:101F400007C0EB81FC81858D8F5FEB81FC81858FE4
:101F500081E08A8301C01A828A8128960FB6F8949C
:101F6000DEBF0FBECDBFCF91DF910895DF93CF933A
:101F700000D00F92CDB7DEB79B838A830FB6F8945B
:101F80000F92EA81FB81828D89830F900FBE898138
:101F90000F900F900F90CF91DF910895DF93CF9323
:101FA00000D00F92CDB7DEB79B838A83EA81FB8195
:101FB000828D898389810F900F900F90CF91DF914F
:101FC0000895DF93CF9300D0CDB7DEB79A8389838E
:101FD000E981FA81808191810E94C10889819A8179
:101FE0000E94C1080F900F90CF91DF910895DF9369
:101FF000CF9300D000D00F92CDB7DEB79A838983FC
:102000007C836B834D83E981FA81848D882309F475
:1020100074C08D81882399F5E981FA816481758185
:10202000E981FA81848D482F50E02B813C81CB01DE
:10203000B9010E942536E981FA8124813581E9813F
:10204000FA81848D882F90E0820F931FE981FA81B5
:1020500095838483E981FA8124813581E981FA813C
:10206000828193812817390708F447C0E981FA81F2
:1020700080819181E981FA81958384833EC0E981E1
:10208000FA8166817781E981FA81848D482F50E059
:102090002B813C81CB01B9010E942536E981FA816F
:1020A00026813781E981FA81848D882F90E090958F
:1020B00081959F4F820F931FE981FA8197838683D1
:1020C000E981FA8126813781E981FA8180819181D4
:1020D0002817390790F4E981FA8122813381E98157
:1020E000FA81848D882F90E0909581959F4F820F83
:1020F000931FE981FA8197838683E981FA81828D32
:102100008F5FE981FA81828F0F900F900F900F906F
:102110000F90CF91DF910895DF93CF9300D000D03F
:10212000CDB7DEB79A8389837C836B83E981FA819B
:1021300080819181009789F1E981FA812681378137
:10214000E981FA81848D882F90E0820F931FE981C5
:10215000FA8197838683E981FA8126813781E98133
:10216000FA81828193812817390740F0E981FA8149
:1021700080819181E981FA8197838683E981FA815F
:1021800046815781E981FA81848D282F30E08B8147
:102190009C81BA01A9010E9425360F900F900F90E3
:1021A0000F90CF91DF910895DF93CF9300D0CDB7FB
:1021B000DEB79A8389830FB6F8940F9215C0E98130
:1021C000FA8181898823A9F089819A8141960E94A8
:1021D0000C16882311F00E94EA16E981FA81868D97
:1021E0008150E981FA81868FE981FA81868D1816FE
:1021F00034F3E981FA818FEF868F0F900FBE0FB60F
:10220000F8940F9215C0E981FA8180858823A9F09E
:1022100089819A8108960E940C16882311F00E94E9
:10222000EA16E981FA81858D8150E981FA81858FED
:10223000E981FA81858D181634F3E981FA818FEFEF
:10224000858F0F900FBE0F900F90CF91DF91089563
:10225000DF93CF9300D00F92CDB7DEB79B838A83F5
:102260000FB6F8940F92EA81FB81828D1982882340
:1022700011F481E089830F900FBE89810F900F9038
:102280000F90CF91DF910895DF93CF9300D00F92FD
:10229000CDB7DEB79B838A83EA81FB81828D198269
:1022A000882311F481E0898389810F900F900F902A
:1022B000CF91DF910895DF93CF9300D00F92CDB7E8
:1022C000DEB79B838A830FB6F8940F92EA81FB8175
:1022D000928DEA81FB81838D1982981711F481E038
:1022E00089830F900FBE89810F900F900F90CF912F
:1022F000DF910895DF93CF9300D00F92CDB7DEB773
:102300009B838A83EA81FB81928DEA81FB81838DA5
:102310001982981711F481E0898389810F900F90B9
:102320000F90CF91DF910895AF92BF92CF92DF923D
:10233000EF92FF920F931F93DF93CF93CDB7DEB74A
:1023400064970FB6F894DEBF0FBECDBF9F838E8318
:10235000798768875B874A873D872C870E87F88A4D
:10236000EF86DA8AC98ABC8AAB8A8A859B852989E5
:102370003A89B9010E9419189C838B838B819C81B7
:10238000009709F499C0EB81FC812789308D8A85FB
:102390009B850197820F931F9A8389838B819C81F0
:1023A00028853985EB89FC89AA85BB85B9014E85CD
:1023B0009F018D010E94FE1689819A812E813F81A5
:1023C0004C855D85B9010E94220AEB81FC819183D5
:1023D00080838F859889009731F0EF85F8898B810C
:1023E0009C81918380830FB6F8940F928091F706B9
:1023F0008F5F8093F7068091F4069091F506009721
:1024000069F48B819C819093F5068093F40680910A
:10241000F7068130A9F40E94551712C08091FC067E
:10242000882371F4E091F406F091F50696898E8583
:10243000891730F08B819C819093F5068093F40688
:10244000EB81FC8196898091FA06891728F4EB814B
:10245000FC8186898093FA06809101078F5F8093C3
:102460000107EB81FC8196898091FB06891728F48E
:10247000EB81FC8186898093FB06EB81FC81868958
:10248000282F30E0C901880F991F880F991F880FE6
:10249000991F820F931FAC014E5F584F8B819C8117
:1024A0009C012E5F3F4FCA01B9010E94210981E0C2
:1024B0008D830F900FBE02C08FEF8D838D81813091
:1024C00071F48091FC06882351F0E091F406F091BC
:1024D000F50696898E85981710F40E94E10B8D8180
:1024E00064960FB6F894DEBF0FBECDBFCF91DF91DB
:1024F0001F910F91FF90EF90DF90CF90BF90AF9022
:102500000895DF93CF9300D000D000D0CDB7DEB7D1
:102510009C838B830FB6F8940F922091F406309130
:10252000F5068B819C818217930711F41C821B8214
:102530008B819C81009739F48091F4069091F50687
:102540009E838D8304C08B819C819E838D838D812E
:102550009E819A83898389819A8102960E94D909F2
:10256000E981FA8184899589009729F089819A8186
:102570000C960E94D90989819A819C012E5F3F4F58
:102580008EE497E0B9010E9421098091F6068F5FE1
:102590008093F606809101078F5F809301070F906B
:1025A0000FBE8091FC06882331F08B819C810097BF
:1025B00011F40E94E10B26960FB6F894DEBF0FBE11
:1025C000CDBFCF91DF910895DF93CF93CDB7DEB725
:1025D00028970FB6F894DEBF0FBECDBF9E838D83C4
:1025E00078876F8319820E94D013ED81FE8120814C
:1025F00031818F819885820F931F9C838B83ED811E
:10260000FE81208131818091F8069091F906821730
:102610009307A8F4ED81FE81208131818B819C811B
:102620008217930700F52091F8063091F9068B8107
:102630009C8128173907B8F481E0898314C0ED81A3
:10264000FE81208131818B819C818217930748F024
:102650002091F8063091F9068B819C812817390763
:1026600010F481E08983ED81FE818B819C819183CF
:1026700080838981882359F08091F4069091F50632
:1026800002960E94D9098B819C810E94D0170E94DA
:10269000DC138A838A81882311F40E94E10B289637
:1026A0000FB6F894DEBF0FBECDBFCF91DF91089576
:1026B000DF93CF9300D000D00F92CDB7DEB79D83CC
:1026C0008C8319828C819D810097D1F00E94D01358
:1026D0002091F8063091F9068C819D81820F931F1D
:1026E0009B838A838091F4069091F50602960E945E
:1026F000D9098A819B810E94D0170E94DC138983AB
:102700008981882311F40E94E10B0F900F900F90A4
:102710000F900F90CF91DF910895AF92BF92CF921B
:10272000DF92EF92FF920F93DF93CF930F92CDB78B
:10273000DEB720E630E084EF96E1B90144E650E0F0
:1027400020E030E000E0EE24FF24CC24DD24AA24A5
:10275000BB240E94941189838981813051F4F894BB
:1027600081E08093FC061092F9061092F8060E9410
:10277000A50B0F90CF91DF910F91FF90EF90DF901D
:10278000CF90BF90AF900895DF93CF93CDB7DEB7D2
:10279000F8941092FC060E94DA0BCF91DF91089515
:1027A000DF93CF93CDB7DEB78091FD068F5F809327
:1027B000FD06CF91DF910895DF93CF9300D000D035
:1027C000CDB7DEB71A820FB6F8940F928091FD064E
:1027D00081508093FD068091FD06882309F06CC02E
:1027E0008091F706882309F467C0198241C0E091FF
:1027F0004A07F0914B07868197819C838B838B815D
:102800009C810C960E94D9098B819C8102960E9422
:10281000D909EB81FC8196898091FB06891728F400
:10282000EB81FC8186898093FB06EB81FC818689A4
:10283000282F30E0C901880F991F880F991F880F32
:10284000991F820F931F8E5F984F2B813C812E5FC3
:102850003F4FB9010E942109EB81FC819689E091EB
:10286000F406F091F5068689981710F081E08983C7
:1028700080914507882309F0BACF8091FE0688230E
:1028800071F007C00E949B148091FE0681508093D6
:10289000FE068091FE068823A9F781E0898389815D
:1028A000813021F08091FF06813031F481E08A830C
:1028B0001092FF060E94E10B0F900FBE8A810F90CD
:1028C0000F900F900F90CF91DF910895DF93CF93EA
:1028D00000D0CDB7DEB70FB6F8940F928091F8060E
:1028E0009091F9069A8389830F900FBE89819A810E
:1028F0000F900F90CF91DF910895DF93CF9300D089
:102900000F92CDB7DEB719828091F8069091F90643
:102910009B838A838A819B810F900F900F90CF9128
:10292000DF910895DF93CF93CDB7DEB78091F7069F
:10293000CF91DF910895DF93CF9300D000D000D0E6
:10294000CDB7DEB78091FD06882309F0BBC080912A
:10295000F8069091F90601969093F9068093F8068F
:102960008091F8069091F9060097D1F58091410782
:10297000909142079C838B838091430790914407F9
:1029800090934207809341078B819C8190934407E9
:1029900080934307809100078F5F80930007E09149
:1029A0004107F09142078081882339F48FEF9FEF30
:1029B0009093C1008093C00013C0E0914107F09153
:1029C00042070580F681E02D868197819E838D8365
:1029D000ED81FE81828193819093C1008093C0003C
:1029E0002091F8063091F9068091C0009091C100C5
:1029F0002817390708F46BC0E0914107F0914207AE
:102A00008081882339F48FEF9FEF9093C1008093EA
:102A1000C0005DC0E0914107F09142070580F6815A
:102A2000E02D868197819E838D83ED81FE81828159
:102A300093819A8389832091F8063091F9068981E0
:102A40009A812817390738F489819A819093C100B7
:102A50008093C0003CC08D819E8102960E94D9095E
:102A6000ED81FE8184899589009729F08D819E8171
:102A70000C960E94D909ED81FE8196898091FB0612
:102A8000891728F4ED81FE8186898093FB06ED810C
:102A9000FE818689282F30E0C901880F991F880F91
:102AA000991F880F991F820F931FAC014E5F584FDB
:102AB0008D819E819C012E5F3F4FCA01B9010E940A
:102AC00021099ACF8091FE068F5F8093FE0626969D
:102AD0000FB6F894DEBF0FBECDBFCF91DF91089542
:102AE000DF93CF9300D0CDB7DEB78091FD0688236A
:102AF00049F081E08093FF0654C08091FB0681502D
:102B00008093FB068091FB06282F30E0C901880FD7
:102B1000991F880F991F880F991F820F931FFC011F
:102B2000EE5FF84F8081882341F38091FB06282FC8
:102B300030E0C901880F991F880F991F880F991FCE
:102B4000820F931F8E5F984F9A838983E981FA8160
:102B50000180F281E02D82819381E981FA81928363
:102B60008183E981FA812181328189819A81039669
:102B70002817390759F4E981FA810180F281E02DA3
:102B800082819381E981FA8192838183E981FA814B
:102B90000180F281E02D868197819093F5068093E4
:102BA000F4060F900F90CF91DF910895DF93CF93AC
:102BB00000D000D000D0CDB7DEB79C838B837E835E
:102BC0006D834B815C818091F4069091F5069C01A8
:102BD000245F3F4FCA01B9010E946D098091F4063C
:102BE0009091F50602960E94D9092091F80630913D
:102BF000F9068D819E81820F931F9A838983898133
:102C00009A810E94D01726960FB6F894DEBF0FBEA9
:102C1000CDBFCF91DF910895DF93CF9300D000D047
:102C20000F92CDB7DEB79D838C83EC81FD8105804B
:102C3000F681E02D868197819B838A838A819B819F
:102C40000C960E94D9098091FD06882361F58A813E
:102C50009B8102960E94D909EA81FB819689809125
:102C6000FB06891728F4EA81FB8186898093FB069D
:102C7000EA81FB818689282F30E0C901880F991FDE
:102C8000880F991F880F991F820F931FAC014E5F09
:102C9000584F8A819B819C012E5F3F4FCA01B90129
:102CA0000E9421090AC08A819B819C01245F3F4FB9
:102CB00085E497E0B9010E942109EA81FB819689A8
:102CC000E091F406F091F5068689981718F081E0F6
:102CD000898301C0198289810F900F900F900F9006
:102CE0000F90CF91DF910895DF93CF9300D0CDB7B0
:102CF000DEB79A83898380910007E981FA81808316
:102D00008091F8069091F906E981FA819283818396
:102D10000F900F90CF91DF910895DF93CF9300D064
:102D200000D00F92CDB7DEB79B838A837D836C83FF
:102D30000FB6F8940F92EA81FB8190818091000791
:102D4000981771F0EA81FB81218132818091F80628
:102D50009091F9068217930718F081E089832FC0BC
:102D60002091F8063091F906EA81FB8181819281F8
:102D7000281B390BEC81FD8180819181281739074F
:102D8000E0F4EC81FD8140815181EA81FB81218168
:102D900032818091F8069091F906B901681B790B90
:102DA000CB01840F951FEC81FD81918380838A8103
:102DB0009B810E947416198202C081E089830F9062
:102DC0000FBE89810F900F900F900F900F90CF91B1
:102DD000DF910895DF93CF93CDB7DEB781E0809385
:102DE000FF06CF91DF910895DF93CF9300D0CDB749
:102DF000DEB79A8389830E949217FDCF0F931F93AA
:102E0000DF93CF93CDB7DEB729970FB6F894DEBF27
:102E10000FBECDBF9A8389837C836B834D833F83B1
:102E20002E831987088789819A8149962B813C8155
:102E3000B90148E050E00E943536E981FA8110A2DC
:102E40008D81853010F084E08D83E981FA818D8158
:102E5000868B89819A8102960E94110989819A81C3
:102E60000C960E941109E981FA8189819A819187E2
:102E700080878D81282F30E085E090E0821B930BC6
:102E8000E981FA8195878487E981FA8189819A812C
:102E9000938B828B29960FB6F894DEBF0FBECDBF01
:102EA000CF91DF911F910F910895DF93CF930F92F0
:102EB000CDB7DEB7198213C08981282F30E0C90150
:102EC000880F991F880F991F880F991F820F931FD2
:102ED0008E5F984F0E94E70889818F5F898389817F
:102EE000853050F38FE297E00E94E70888E397E08F
:102EF0000E94E70885E497E00E94E7088EE497E0E7
:102F00000E94E7088FE297E0909342078093410781
:102F100088E397E090934407809343070F90CF9105
:102F2000DF910895DF93CF9300D00F92CDB7DEB736
:102F30008091F606882371F10E94D01380914E078C
:102F40001B82882311F481E08B830E94DC138B8128
:102F5000882301F50FB6F8940F92E0915307F09192
:102F60005407868197819A83898389819A81029601
:102F70000E94D9098091F70681508093F7068091CD
:102F8000F60681508093F6060F900FBE89819A81D4
:102F90000E9469180F900F900F90CF91DF910895C4
:102FA000DF93CF9300D0CDB7DEB79A838983E091CA
:102FB000F406F091F50689819A81938382832091AA
:102FC000F8063091F90689819A818217930770F487
:102FD00080914307909144072091F4063091F506C3
:102FE0002E5F3F4FB9010E946D091EC040914107FD
:102FF000509142078091F4069091F5069C012E5F56
:103000003F4FCA01B9010E946D092091C000309163
:10301000C10089819A818217930730F489819A814E
:103020009093C1008093C0000F900F90CF91DF91DB
:103030000895DF93CF93CDB7DEB728970FB6F894F6
:10304000DEBF0FBECDBF9C838B837E836D8381E209
:1030500090E00E947B089A83898389819A810097F6
:1030600069F18D819E81009739F48B819C810E944A
:103070007B0898878F8304C08D819E8198878F837A
:10308000E981FA818F819885908F878BE981FA8118
:103090008789908D009739F489819A810E94C108AF
:1030A0001A8219820BC0E981FA818789908D2B8160
:1030B0003C8165EA70E0A9010E942E3689819A81DF
:1030C00028960FB6F894DEBF0FBECDBFCF91DF912B
:1030D0000895DF93CF9300D0CDB7DEB79A8389836D
:1030E000E981FA818789908D0E94C10889819A813E
:1030F0000E94C1080F900F90CF91DF910895DF9348
:10310000CF9300D000D000D0CDB7DEB79B838A83A9
:103110006C8319828A819B81009719F482E08983EC
:103120003CC08C81282F30E03E832D838D819E8191
:103130008130910531F02D813E8122303105B1F091
:103140002AC0EA81FB818081EA81FB819181692F1C
:1031500041E00E94A22FEA81FB818081EA81FB810C
:103160009281692F40E00E94A22F17C0EA81FB8163
:103170008081EA81FB819181692F40E00E94A22F2A
:10318000EA81FB818081EA81FB819281692F41E0A4
:103190000E94A22F02C085E08983898126960FB6FE
:1031A000F894DEBF0FBECDBFCF91DF910895DF93BE
:1031B000CF9300D00F92CDB7DEB79B838A8319825D
:1031C0008A819B81009719F482E0898314C0EA8187
:1031D000FB818081EA81FB819181692F40E00E941F
:1031E000A22FEA81FB818081EA81FB819281692F94
:1031F00040E00E94A22F89810F900F900F90CF91F5
:10320000DF9108950F931F93DF93CF93CDB7DEB770
:10321000C25FD0400FB6F894DEBF0FBECDBFFE0137
:10322000E651FF4F91838083FE01E451FF4F71838C
:103230006083FE01E251FF4F4083FE01E751FF4FE3
:103240001082FE01EB51FF4F108211821282138215
:10325000FE01EF51FF4F1082118212821382FE0194
:10326000E651FF4F80819181009739F4FE01E751CB
:10327000FF4F82E080830C949328FE01E451FF4FBE
:1032800080819181009711F00C944921FE01E25157
:10329000FF4F8081282F30E0CF50DF4F39832883C4
:1032A000C15FD040CF50DF4F88819981C15FD0404E
:1032B0008130910509F4F9C3CF50DF4FE881F981DE
:1032C000C15FD040E230F10511F00C944321FE01C2
:1032D000E651FF4F0190F081E02D8081FE01E65123
:1032E000FF4F0190F081E02D9181692F40E00E9415
:1032F000A22FFE01E651FF4F0190F081E02D808169
:10330000FE01E651FF4F0190F081E02D9281692F7F
:1033100041E00E94A22FFE01E651FF4F0190F08193
:10332000E02D8081FE01E651FF4F0190F081E02DFC
:103330009381692F41E00E94A22FFE01E651FF4FC9
:103340000190F081E02D8081FE01E651FF4F019058
:10335000F081E02D9481692F41E00E94A22FFE01AF
:10336000E352FF4F80E090E0A0E0B0E480839183DF
:10337000A283B3838E0107521F4FFE01E352FF4F1A
:10338000608171818281938120E030E04AEF54E4D2
:103390000E941F02DC01CB01F80180839183A2838C
:1033A000B383FE01E752FF4F608171818281938177
:1033B00020E030E040E85FE30E947903882344F492
:1033C000FE01E952FF4F81E090E09183808364C069
:1033D000FE01E752FF4F608171818281938120E07D
:1033E0003FEF4FE757E40E94190318160CF043C053
:1033F000FE01E352FF4F608171818281938120E061
:1034000030E040E251E40E941F02DC01CB018E015A
:1034100009521F4FBC01CD010E944900DC01CB01C4
:10342000F801918380831FC0FE01EB52FF4F88ECAF
:1034300090E091838083FE01EB52FF4F8081918168
:103440000197F1F7FE01EB52FF4F91838083DE017C
:10345000A952BF4FFE01E952FF4F80819181019730
:1034600011969C938E93FE01E952FF4F80819181CA
:103470000097D1F627C08E0109521F4FFE01E75277
:10348000FF4F60817181828193810E944900DC013C
:10349000CB01F80191838083DE01AD52BF4FFE0165
:1034A000E952FF4F808191818D939C93FE01ED52F3
:1034B000FF4F808191810197F1F7FE01ED52FF4F9F
:1034C00091838083FE01E651FF4F0190F081E02D52
:1034D0008081FE01E651FF4F0190F081E02D918146
:1034E000692F41E00E94A22FFE01E651FF4F01909B
:1034F000F081E02D8081FE01E651FF4F0190F081C7
:10350000E02D9281692F40E00E94A22FFE01E6513A
:10351000FF4F0190F081E02D8081FE01E651FF4FC9
:103520000190F081E02D9381692F41E00E94A22F4C
:10353000FE01E651FF4F0190F081E02D8081FE01F8
:10354000E651FF4F0190F081E02D9481692F41E019
:103550000E94A22FFE01E153FF4F80E090E0A0E027
:10356000B0E480839183A283B3838E0105531F4F00
:10357000FE01E153FF4F608171818281938120E0E0
:1035800030E04AEF54E40E941F02DC01CB01F80155
:1035900080839183A283B383FE01E553FF4F608153
:1035A00071818281938120E030E040E85FE30E94F6
:1035B0007903882344F4FE01E753FF4F81E090E054
:1035C0009183808364C0FE01E553FF4F6081718168
:1035D0008281938120E03FEF4FE757E40E94190377
:1035E00018160CF043C0FE01E153FF4F608171815A
:1035F0008281938120E030E040E251E40E941F028A
:10360000DC01CB018E0107531F4FBC01CD010E948D
:103610004900DC01CB01F801918380831FC0FE01CA
:10362000E953FF4F88EC90E091838083FE01E953DA
:10363000FF4F808191810197F1F7FE01E953FF4F20
:1036400091838083DE01A753BF4FFE01E753FF4FF5
:1036500080819181019711969C938E93FE01E7538F
:10366000FF4F808191810097D1F627C08E010753CB
:103670001F4FFE01E553FF4F60817181828193816D
:103680000E944900DC01CB01F80191838083DE01B7
:10369000AB53BF4FFE01E753FF4F808191818D9364
:1036A0009C93FE01EB53FF4F808191810197F1F7CD
:1036B000FE01EB53FF4F91838083FE01E651FF4FE4
:1036C0000190F081E02D8081FE01E651FF4F0190D5
:1036D000F081E02D9181692F41E00E94A22FFE012F
:1036E000E651FF4F0190F081E02D8081FE01E6510F
:1036F000FF4F0190F081E02D9281692F41E00E94FF
:10370000A22FFE01E651FF4F0190F081E02D808154
:10371000FE01E651FF4F0190F081E02D9381692F6A
:1037200040E00E94A22FFE01E651FF4F0190F08180
:10373000E02D8081FE01E651FF4F0190F081E02DE8
:103740009481692F41E00E94A22FFE01EF53FF4FA9
:1037500080E090E0A0E0B0E480839183A283B38313
:103760008E0103541F4FFE01EF53FF4F60817181A3
:103770008281938120E030E04AEF54E40E941F02EE
:10378000DC01CB01F80180839183A283B383FE0126
:10379000E354FF4F608171818281938120E030E0AA
:1037A00040E85FE30E947903882344F4FE01E55476
:1037B000FF4F81E090E09183808364C0FE01E35479
:1037C000FF4F608171818281938120E03FEF4FE75D
:1037D00057E40E94190318160CF043C0FE01EF5382
:1037E000FF4F608171818281938120E030E040E26F
:1037F00051E40E941F02DC01CB018E0105541F4FD2
:10380000BC01CD010E944900DC01CB01F80191838C
:1038100080831FC0FE01E754FF4F88EC90E0918346
:103820008083FE01E754FF4F808191810197F1F77A
:10383000FE01E754FF4F91838083DE01A554BF4F03
:10384000FE01E554FF4F80819181019711969C9371
:103850008E93FE01E554FF4F808191810097D1F650
:1038600027C08E0105541F4FFE01E354FF4F6081B6
:103870007181828193810E944900DC01CB01F801B2
:1038800091838083DE01A954BF4FFE01E554FF4FB1
:10389000808191818D939C93FE01E954FF4F80813B
:1038A00091810197F1F7FE01E954FF4F91838083E5
:1038B000FE01E651FF4F0190F081E02D8081FE0175
:1038C000E651FF4F0190F081E02D9181692F41E099
:1038D0000E94A22FFE01E651FF4F0190F081E02DE2
:1038E0008081FE01E651FF4F0190F081E02D928131
:1038F000692F41E00E94A22FFE01E651FF4F019087
:10390000F081E02D8081FE01E651FF4F0190F081B2
:10391000E02D9381692F41E00E94A22FFE01E65124
:10392000FF4F0190F081E02D8081FE01E651FF4FB5
:103930000190F081E02D9481692F40E00E94A22F38
:10394000FE01ED54FF4F80E090E0A0E0B0E4808302
:103950009183A283B3838E0101551F4FFE01ED5465
:10396000FF4F608171818281938120E030E04AEFD6
:1039700054E40E941F02DC01CB01F8018083918393
:10398000A283B383FE01E155FF4F60817181828183
:10399000938120E030E040E85FE30E9479038823D0
:1039A00044F4FE01E355FF4F81E090E09183808372
:1039B00064C0FE01E155FF4F608171818281938176
:1039C00020E03FEF4FE757E40E94190318160CF070
:1039D00043C0FE01ED54FF4F60817181828193816C
:1039E00020E030E040E251E40E941F02DC01CB0104
:1039F0008E0103551F4FBC01CD010E944900DC011F
:103A0000CB01F801918380831FC0FE01E555FF4F74
:103A100088EC90E091838083FE01E555FF4F808123
:103A200091810197F1F7FE01E555FF4F9183808366
:103A3000DE01A355BF4FFE01E355FF4F8081918109
:103A4000019711969C938E93FE01E355FF4F808161
:103A500091810097D1F63BCC8E0103551F4FFE019B
:103A6000E155FF4F60817181828193810E944900FD
:103A7000DC01CB01F80191838083DE01A755BF4FA4
:103A8000FE01E355FF4F8081918111969C938E93A7
:103A9000FE01E755FF4F808191810197F1F7FE010B
:103AA000E755FF4F9183808312CCFE01E651FF4F13
:103AB0000190F081E02D8081FE01E651FF4F0190E1
:103AC000F081E02D9481692F40E00E94A22FFE0139
:103AD000E651FF4F0190F081E02D8081FE01E6511B
:103AE000FF4F0190F081E02D9381692F41E00E940A
:103AF000A22FFE01E651FF4F0190F081E02D808161
:103B0000FE01E651FF4F0190F081E02D9281692F77
:103B100041E00E94A22FFE01E651FF4F0190F0818B
:103B2000E02D8081FE01E651FF4F0190F081E02DF4
:103B30009181692F41E00E94A22FFE01EB55FF4FBA
:103B400080E090E0A0E0B0E480839183A283B3831F
:103B50008E010F551F4FFE01EB55FF4F60817181A4
:103B60008281938120E030E04AEF54E40E941F02FA
:103B7000DC01CB01F80180839183A283B383FE0132
:103B8000EF55FF4F608171818281938120E030E0A9
:103B900040E85FE30E947903882344F4FE01E15684
:103BA000FF4F81E090E09183808364C0FE01EF5578
:103BB000FF4F608171818281938120E03FEF4FE769
:103BC00057E40E94190318160CF043C0FE01EB5590
:103BD000FF4F608171818281938120E030E040E27B
:103BE00051E40E941F02DC01CB018E0101561F4FE0
:103BF000BC01CD010E944900DC01CB01F801918399
:103C000080831FC0FE01E356FF4F88EC90E0918354
:103C10008083FE01E356FF4F808191810197F1F788
:103C2000FE01E356FF4F91838083DE01A156BF4F13
:103C3000FE01E156FF4F80819181019711969C937F
:103C40008E93FE01E156FF4F808191810097D1F65E
:103C500027C08E0101561F4FFE01EF55FF4F6081B7
:103C60007181828193810E944900DC01CB01F801BE
:103C700091838083DE01A556BF4FFE01E156FF4FC1
:103C8000808191818D939C93FE01E556FF4F808149
:103C900091810197F1F7FE01E556FF4F91838083F3
:103CA000FE01E651FF4F0190F081E02D8081FE0181
:103CB000E651FF4F0190F081E02D9481692F41E0A2
:103CC0000E94A22FFE01E651FF4F0190F081E02DEE
:103CD0008081FE01E651FF4F0190F081E02D93813C
:103CE000692F40E00E94A22FFE01E651FF4F019094
:103CF000F081E02D8081FE01E651FF4F0190F081BF
:103D0000E02D9281692F41E00E94A22FFE01E65131
:103D1000FF4F0190F081E02D8081FE01E651FF4FC1
:103D20000190F081E02D9181692F41E00E94A22F46
:103D3000FE01E956FF4F80E090E0A0E0B0E4808310
:103D40009183A283B3838E010D561F4FFE01E95666
:103D5000FF4F608171818281938120E030E04AEFE2
:103D600054E40E941F02DC01CB01F801808391839F
:103D7000A283B383FE01ED56FF4F60817181828182
:103D8000938120E030E040E85FE30E9479038823DC
:103D900044F4FE01EF56FF4F81E090E09183808371
:103DA00064C0FE01ED56FF4F608171818281938175
:103DB00020E03FEF4FE757E40E94190318160CF07C
:103DC00043C0FE01E956FF4F60817181828193817A
:103DD00020E030E040E251E40E941F02DC01CB0110
:103DE0008E010F561F4FBC01CD010E944900DC011E
:103DF000CB01F801918380831FC0FE01E157FF4F83
:103E000088EC90E091838083FE01E157FF4F808131
:103E100091810197F1F7FE01E157FF4F9183808374
:103E2000DE01AF56BF4FFE01EF56FF4F80819181FB
:103E3000019711969C938E93FE01EF56FF4F808160
:103E400091810097D1F627C08E010F561F4FFE01BA
:103E5000ED56FF4F60817181828193810E944900FC
:103E6000DC01CB01F80191838083DE01A357BF4FB2
:103E7000FE01EF56FF4F808191818D939C93FE014F
:103E8000E357FF4F808191810197F1F7FE01E357DE
:103E9000FF4F91838083FE01E651FF4F0190F08137
:103EA000E02D8081FE01E651FF4F0190F081E02D71
:103EB0009481692F41E00E94A22FFE01E651FF4F3D
:103EC0000190F081E02D8081FE01E651FF4F0190CD
:103ED000F081E02D9381692F41E00E94A22FFE0125
:103EE000E651FF4F0190F081E02D8081FE01E65107
:103EF000FF4F0190F081E02D9281692F40E00E94F8
:103F0000A22FFE01E651FF4F0190F081E02D80814C
:103F1000FE01E651FF4F0190F081E02D9181692F64
:103F200041E00E94A22FFE01E757FF4F80E090E0A2
:103F3000A0E0B0E480839183A283B3838E010B570A
:103F40001F4FFE01E757FF4F60817181828193818E
:103F500020E030E04AEF54E40E941F02DC01CB0174
:103F6000F80180839183A283B383FE01EB57FF4F57
:103F7000608171818281938120E030E040E85FE3DD
:103F80000E947903882344F4FE01ED57FF4F81E03E
:103F900090E09183808364C0FE01EB57FF4F608106
:103FA00071818281938120E03FEF4FE757E40E94C7
:103FB000190318160CF043C0FE01E757FF4F60814C
:103FC00071818281938120E030E040E251E40E94DF
:103FD0001F02DC01CB018E010D571F4FBC01CD012B
:103FE0000E944900DC01CB01F801918380831FC04E
:103FF000FE01EF57FF4F88EC90E091838083FE0134
:10400000EF57FF4F808191810197F1F7FE01EF5744
:10401000FF4F91838083DE01AD57BF4FFE01ED5707
:10402000FF4F80819181019711969C938E93FE01A1
:10403000ED57FF4F808191810097D1F627C08E0107
:104040000D571F4FFE01EB57FF4F60817181828139
:1040500093810E944900DC01CB01F80191838083A8
:10406000DE01A158BF4FFE01ED57FF4F80819181C6
:104070008D939C93FE01E158FF4F808191810197C0
:10408000F1F7FE01E158FF4F91838083FE01E65175
:10409000FF4F0190F081E02D8081FE01E651FF4F3E
:1040A0000190F081E02D9481692F41E00E94A22FC0
:1040B000FE01E651FF4F0190F081E02D8081FE016D
:1040C000E651FF4F0190F081E02D9381692F41E08F
:1040D0000E94A22FFE01E651FF4F0190F081E02DDA
:1040E0008081FE01E651FF4F0190F081E02D928129
:1040F000692F41E00E94A22FFE01E651FF4F01907F
:10410000F081E02D8081FE01E651FF4F0190F081AA
:10411000E02D9181692F40E00E94A22FFE01E55819
:10412000FF4F80E090E0A0E0B0E480839183A28321
:10413000B3838E0109581F4FFE01E558FF4F608180
:1041400071818281938120E030E04AEF54E40E9443
:104150001F02DC01CB01F80180839183A283B3832A
:10416000FE01E958FF4F608171818281938120E0D7
:1041700030E040E85FE30E947903882344F4FE01C5
:10418000EB58FF4F81E090E09183808364C0FE0193
:10419000E958FF4F608171818281938120E03FEF78
:1041A0004FE757E40E94190318160CF043C0FE01B4
:1041B000E558FF4F608171818281938120E030E07A
:1041C00040E251E40E941F02DC01CB018E010B583A
:1041D0001F4FBC01CD010E944900DC01CB01F80159
:1041E000918380831FC0FE01ED58FF4F88EC90E063
:1041F00091838083FE01ED58FF4F8081918101976B
:10420000F1F7FE01ED58FF4F91838083DE01AB583B
:10421000BF4FFE01EB58FF4F8081918101971196AE
:104220009C938E93FE01EB58FF4F80819181009704
:10423000D1F63BCC8E010B581F4FFE01E958FF4FC2
:1042400060817181828193810E944900DC01CB01F0
:10425000F80191838083DE01AF58BF4FFE01EB5818
:10426000FF4F8081918111969C938E93FE01EF58B0
:10427000FF4F808191810197F1F7FE01EF58FF4FC9
:104280009183808312CCFE01E751FF4F85E080834C
:104290004AC7FE01E451FF4F808191819C01220FAA
:1042A000331FC901880F991F880F991F820F931F11
:1042B00027E030E0B9010E949D35CB01FE01EB51B2
:1042C000FF4FCC01A0E0B0E080839183A283B38351
:1042D000FE01E251FF4F8081282F30E0C151DF4FB6
:1042E00039832883CF5ED040C151DF4F88819981C7
:1042F000CF5ED0408130910509F4F8C3C151DF4F42
:10430000E881F981CF5ED040E230F10509F006C7BF
:10431000FE01EF51FF4F1082118212821382D0C32F
:10432000FE01E651FF4F0190F081E02D8081FE01FA
:10433000E651FF4F0190F081E02D9181692F40E01F
:104340000E94A22FFE01E651FF4F0190F081E02D67
:104350008081FE01E651FF4F0190F081E02D9281B6
:10436000692F41E00E94A22FFE01E651FF4F01900C
:10437000F081E02D8081FE01E651FF4F0190F08138
:10438000E02D9381692F41E00E94A22FFE01E651AA
:10439000FF4F0190F081E02D8081FE01E651FF4F3B
:1043A0000190F081E02D9481692F41E00E94A22FBD
:1043B000FE01E359FF4F80E090E0A0E0B0E480838D
:1043C0009183A283B3838E0107591F4FFE01E359E6
:1043D000FF4F608171818281938120E030E04AEF5C
:1043E00054E40E941F02DC01CB01F8018083918319
:1043F000A283B383FE01E759FF4F608171818281FF
:10440000938120E030E040E85FE30E947903882355
:1044100044F4FE01E959FF4F81E090E091838083ED
:1044200064C0FE01E759FF4F6081718182819381F1
:1044300020E03FEF4FE757E40E94190318160CF0F5
:1044400043C0FE01E359FF4F6081718182819381F6
:1044500020E030E040E251E40E941F02DC01CB0189
:104460008E0109591F4FBC01CD010E944900DC019A
:10447000CB01F801918380831FC0FE01EB59FF4FF0
:1044800088EC90E091838083FE01EB59FF4F80819F
:1044900091810197F1F7FE01EB59FF4F91838083E2
:1044A000DE01A959BF4FFE01E959FF4F808191817B
:1044B000019711969C938E93FE01E959FF4F8081DD
:1044C00091810097D1F627C08E0109591F4FFE0137
:1044D000E759FF4F60817181828193810E94490079
:1044E000DC01CB01F80191838083DE01AD59BF4F20
:1044F000FE01E959FF4F808191818D939C93FE01CC
:10450000ED59FF4F808191810197F1F7FE01ED593F
:10451000FF4F91838083FE01E651FF4F0190F081B0
:10452000E02D8081FE01E651FF4F0190F081E02DEA
:104530009181692F41E00E94A22FFE01E651FF4FB9
:104540000190F081E02D8081FE01E651FF4F019046
:10455000F081E02D9281692F40E00E94A22FFE01A0
:10456000E651FF4F0190F081E02D8081FE01E65180
:10457000FF4F0190F081E02D9381692F41E00E946F
:10458000A22FFE01E651FF4F0190F081E02D8081C6
:10459000FE01E651FF4F0190F081E02D9481692FDB
:1045A00041E00E94A22FFE01E15AFF4F80E090E01F
:1045B000A0E0B0E480839183A283B3838E01055A87
:1045C0001F4FFE01E15AFF4F60817181828193810B
:1045D00020E030E04AEF54E40E941F02DC01CB01EE
:1045E000F80180839183A283B383FE01E55AFF4FD4
:1045F000608171818281938120E030E040E85FE357
:104600000E947903882344F4FE01E75AFF4F81E0BA
:1046100090E09183808364C0FE01E55AFF4F608182
:1046200071818281938120E03FEF4FE757E40E9440
:10463000190318160CF043C0FE01E15AFF4F6081C8
:1046400071818281938120E030E040E251E40E9458
:104650001F02DC01CB018E01075A1F4FBC01CD01A7
:104660000E944900DC01CB01F801918380831FC0C7
:10467000FE01E95AFF4F88EC90E091838083FE01B0
:10468000E95AFF4F808191810197F1F7FE01E95AC4
:10469000FF4F91838083DE01A75ABF4FFE01E75A87
:1046A000FF4F80819181019711969C938E93FE011B
:1046B000E75AFF4F808191810097D1F627C08E0184
:1046C000075A1F4FFE01E55AFF4F608171818281B9
:1046D00093810E944900DC01CB01F8019183808322
:1046E000DE01AB5ABF4FFE01E75AFF4F8081918137
:1046F0008D939C93FE01EB5AFF4F8081918101972E
:10470000F1F7FE01EB5AFF4F91838083FE01E651E2
:10471000FF4F0190F081E02D8081FE01E651FF4FB7
:104720000190F081E02D9181692F41E00E94A22F3C
:10473000FE01E651FF4F0190F081E02D8081FE01E6
:10474000E651FF4F0190F081E02D9281692F41E009
:104750000E94A22FFE01E651FF4F0190F081E02D53
:104760008081FE01E651FF4F0190F081E02D9381A1
:10477000692F40E00E94A22FFE01E651FF4F0190F9
:10478000F081E02D8081FE01E651FF4F0190F08124
:10479000E02D9481692F41E00E94A22FFE01EF5A83
:1047A000FF4F80E090E0A0E0B0E480839183A2839B
:1047B000B3838E01035B1F4FFE01EF5AFF4F6081F1
:1047C00071818281938120E030E04AEF54E40E94BD
:1047D0001F02DC01CB01F80180839183A283B383A4
:1047E000FE01E35BFF4F608171818281938120E054
:1047F00030E040E85FE30E947903882344F4FE013F
:10480000E55BFF4F81E090E09183808364C0FE010F
:10481000E35BFF4F608171818281938120E03FEFF4
:104820004FE757E40E94190318160CF043C0FE012D
:10483000EF5AFF4F608171818281938120E030E0E7
:1048400040E251E40E941F02DC01CB018E01055BB6
:104850001F4FBC01CD010E944900DC01CB01F801D2
:10486000918380831FC0FE01E75BFF4F88EC90E0DF
:1048700091838083FE01E75BFF4F808191810197E7
:10488000F1F7FE01E75BFF4F91838083DE01A55BBB
:10489000BF4FFE01E55BFF4F80819181019711962B
:1048A0009C938E93FE01E55BFF4F80819181009781
:1048B000D1F627C08E01055B1F4FFE01E35BFF4F62
:1048C00060817181828193810E944900DC01CB016A
:1048D000F80191838083DE01A95BBF4FFE01E55B98
:1048E000FF4F808191818D939C93FE01E95BFF4F87
:1048F000808191810197F1F7FE01E95BFF4F918380
:104900008083FE01E651FF4F0190F081E02D808110
:10491000FE01E651FF4F0190F081E02D9181692F5A
:1049200041E00E94A22FFE01E651FF4F0190F0816D
:10493000E02D8081FE01E651FF4F0190F081E02DD6
:104940009281692F41E00E94A22FFE01E651FF4FA4
:104950000190F081E02D8081FE01E651FF4F019032
:10496000F081E02D9381692F41E00E94A22FFE018A
:10497000E651FF4F0190F081E02D8081FE01E6516C
:10498000FF4F0190F081E02D9481692F40E00E945B
:10499000A22FFE01ED5BFF4F80E090E0A0E0B0E4CD
:1049A00080839183A283B3838E01015C1F4FFE013C
:1049B000ED5BFF4F608171818281938120E030E067
:1049C0004AEF54E40E941F02DC01CB01F80180830E
:1049D0009183A283B383FE01FF96608171818281FE
:1049E000938120E030E040E85FE30E947903882370
:1049F0002CF481E090E09EAF8DAF46C0FE01FF96A3
:104A0000608171818281938120E03FEF4FE757E41D
:104A10000E941903181664F5FE01ED5BFF4F6081DB
:104A200071818281938120E030E040E251E40E9474
:104A30001F02DC01CB01BC01CD010E944900DC0159
:104A4000CB019EAF8DAF0FC088EC90E09CAF8BAFD9
:104A50008BAD9CAD0197F1F79CAF8BAF8DAD9EAD4B
:104A600001979EAF8DAF8DAD9EAD009769F716C0D3
:104A7000FE01FF9660817181828193810E944900CD
:104A8000DC01CB019EAF8DAF8DAD9EAD9AAF89AFEE
:104A900089AD9AAD0197F1F79AAF89AF9E012F5179
:104AA0003F4FFE01EF51FF4F80819181A281B38181
:104AB0000196A11DB11DF90180839183A283B38367
:104AC000FE01EF51FF4FDE01AB51BF4F208131811D
:104AD000428153818D919D910D90BC91A02D2817FD
:104AE00039074A075B0708F41BCC1DC3FE01EF51D1
:104AF000FF4F1082118212821382FAC2FE01E65128
:104B0000FF4F0190F081E02D8081FE01E651FF4FC3
:104B10000190F081E02D9481692F40E00E94A22F46
:104B2000FE01E651FF4F0190F081E02D8081FE01F2
:104B3000E651FF4F0190F081E02D9381692F41E014
:104B40000E94A22FFE01E651FF4F0190F081E02D5F
:104B50008081FE01E651FF4F0190F081E02D9281AE
:104B6000692F41E00E94A22FFE01E651FF4F019004
:104B7000F081E02D8081FE01E651FF4F0190F08130
:104B8000E02D9181692F41E00E94A22F80E090E00A
:104B9000A0E0B0E48DAB9EABAFABB8AF6DA97EA982
:104BA0008FA998AD20E030E04AEF54E40E941F0244
:104BB000DC01CB0189AB9AABABABBCAB69A97AA9E1
:104BC0008BA99CA920E030E040E85FE30E947903D4
:104BD00088232CF481E090E098AB8FA73FC069A9AF
:104BE0007AA98BA99CA920E03FEF4FE757E40E94E8
:104BF000190318164CF56DA97EA98FA998AD20E070
:104C000030E040E251E40E941F02DC01CB01BC0114
:104C1000CD010E944900DC01CB0198AB8FA70FC0EA
:104C200088EC90E09EA78DA78DA59EA50197F1F732
:104C30009EA78DA78FA598A9019798AB8FA78FA541
:104C400098A9009769F714C069A97AA98BA99CA9AA
:104C50000E944900DC01CB0198AB8FA78FA598A9D2
:104C60009CA78BA78BA59CA50197F1F79CA78BA769
:104C7000FE01E651FF4F0190F081E02D8081FE01A1
:104C8000E651FF4F0190F081E02D9481692F41E0C2
:104C90000E94A22FFE01E651FF4F0190F081E02D0E
:104CA0008081FE01E651FF4F0190F081E02D93815C
:104CB000692F40E00E94A22FFE01E651FF4F0190B4
:104CC000F081E02D8081FE01E651FF4F0190F081DF
:104CD000E02D9281692F41E00E94A22FFE01E65152
:104CE000FF4F0190F081E02D8081FE01E651FF4FE2
:104CF0000190F081E02D9181692F41E00E94A22F67
:104D000080E090E0A0E0B0E48FA398A7A9A7BAA79D
:104D10006FA178A589A59AA520E030E04AEF54E478
:104D20000E941F02DC01CB018BA39CA3ADA3BEA3F9
:104D30006BA17CA18DA19EA120E030E040E85FE363
:104D40000E94790388232CF481E090E09AA389A340
:104D50003FC06BA17CA18DA19EA120E03FEF4FE75A
:104D600057E40E94190318164CF56FA178A589A580
:104D70009AA520E030E040E251E40E941F02DC01ED
:104D8000CB01BC01CD010E944900DC01CB019AA3FB
:104D900089A30FC088EC90E098A38F8F8F8D98A186
:104DA0000197F1F798A38F8F89A19AA101979AA3F0
:104DB00089A389A19AA1009769F714C06BA17CA16E
:104DC0008DA19EA10E944900DC01CB019AA389A379
:104DD00089A19AA19E8F8D8F8D8D9E8D0197F1F760
:104DE0009E8F8D8FFE01E651FF4F0190F081E02DE7
:104DF0008081FE01E651FF4F0190F081E02D94810A
:104E0000692F41E00E94A22FFE01E651FF4F019061
:104E1000F081E02D8081FE01E651FF4F0190F0818D
:104E2000E02D9381692F41E00E94A22FFE01E651FF
:104E3000FF4F0190F081E02D8081FE01E651FF4F90
:104E40000190F081E02D9281692F40E00E94A22F15
:104E5000FE01E651FF4F0190F081E02D8081FE01BF
:104E6000E651FF4F0190F081E02D9181692F41E0E3
:104E70000E94A22F80E090E0A0E0B0E4898F9A8F9A
:104E8000AB8FBC8F698D7A8D8B8D9C8D20E030E04F
:104E90004AEF54E40E941F02DC01CB018D8B9E8BF4
:104EA000AF8BB88F6D897E898F89988D20E030E037
:104EB00040E85FE30E94790388232CF481E090E0CE
:104EC0009C8B8B8B3FC06D897E898F89988D20E06C
:104ED0003FEF4FE757E40E94190318164CF5698D10
:104EE0007A8D8B8D9C8D20E030E040E251E40E9471
:104EF0001F02DC01CB01BC01CD010E944900DC0195
:104F0000CB019C8B8B8B0FC088EC90E09A8B898BAC
:104F100089899A890197F1F79A8B898B8B899C896A
:104F200001979C8B8B8B8B899C89009769F714C0A8
:104F30006D897E898F89988D0E944900DC01CB01A3
:104F40009C8B8B8B8B899C89988B8F878F8598897D
:104F50000197F1F7988B8F87FE01E651FF4F019083
:104F6000F081E02D8081FE01E651FF4F0190F0813C
:104F7000E02D9481692F41E00E94A22FFE01E651AD
:104F8000FF4F0190F081E02D8081FE01E651FF4F3F
:104F90000190F081E02D9381692F41E00E94A22FC2
:104FA000FE01E651FF4F0190F081E02D8081FE016E
:104FB000E651FF4F0190F081E02D9281692F41E091
:104FC0000E94A22FFE01E651FF4F0190F081E02DDB
:104FD0008081FE01E651FF4F0190F081E02D91812B
:104FE000692F40E00E94A22F80E090E0A0E0B0E4B2
:104FF0008B879C87AD87BE876B857C858D859E85DD
:1050000020E030E04AEF54E40E941F02DC01CB01B3
:105010008F839887A987BA876F81788589859A85D4
:1050200020E030E040E85FE30E94790388232CF41D
:1050300081E090E09E838D833FC06F817885898574
:105040009A8520E03FEF4FE757E40E9419031816B6
:105050004CF56B857C858D859E8520E030E040E2B7
:1050600051E40E941F02DC01CB01BC01CD010E9472
:105070004900DC01CB019E838D830FC088EC90E05A
:105080009C838B838B819C810197F1F79C838B831D
:105090008D819E8101979E838D838D819E81009756
:1050A00069F714C06F81788589859A850E944900C7
:1050B000DC01CB019E838D838D819E819A838983C0
:1050C00089819A810197F1F79A8389839E012F51F3
:1050D0003F4FFE01EF51FF4F80819181A281B3814B
:1050E0000196A11DB11DF90180839183A283B38331
:1050F000FE01EF51FF4FDE01AB51BF4F20813181E7
:10510000428153818D919D910D90BC91A02D2817C6
:1051100039074A075B0708F4F1CC05C0FE01E751E7
:10512000FF4F85E08083FE01E751FF4F8081CE5025
:10513000DF4F0FB6F894DEBF0FBECDBFCF91DF912A
:105140001F910F910895DF93CF9300D00F92CDB7A9
:10515000DEB79B838A8319828A819B81009719F429
:1051600082E0898328C0EA81FB818081EA81FB811A
:105170009181692F41E00E94A22FEA81FB81808109
:10518000EA81FB819181692F41E00E94A22FEA818F
:10519000FB818081EA81FB819181692F41E00E943E
:1051A000A22FEA81FB818081EA81FB819181692FB5
:1051B00041E00E94A22F89810F900F900F90CF9114
:1051C000DF910895DF93CF9300D000D00F92CDB739
:1051D000DEB78FEF8B831A825EC08A81882F90E0C2
:1051E000FC01EA53FF4F908181E0692F40E00E946B
:1051F000A22F19823DC08981882F90E0FC01EE53D7
:10520000FF4F90819E012C5F3F4F81E0692FA901E4
:105210000E9487318C81882341F58981282F30E0D5
:105220008A81482F50E0C901880F991F820F931F70
:10523000840F951FFC01E753FF4F80818B830FC0C4
:105240008981882F90E0FC01EE53FF4F90819E01F1
:105250002C5F3F4F81E0692FA9010E9487318C812B
:10526000882371F38B818D831CC089818F5F898333
:105270008981843008F4BFCF8A81882F90E0FC01B7
:10528000EA53FF4F908181E0692F41E00E94A22FF5
:105290008A818F5F8A838A81833008F49ECF8B81D5
:1052A0008D838D810F900F900F900F900F90CF9165
:1052B000DF910895DF93CF93CDB7DEB72E970FB66A
:1052C000F894DEBF0FBECDBF80E090E0A0E2B2E474
:1052D0008B879C87AD87BE876B857C858D859E85FA
:1052E00020E030E04AEF54E40E941F02DC01CB01D1
:1052F0008F839887A987BA876F81788589859A85F2
:1053000020E030E040E85FE30E94790388232CF43A
:1053100081E090E09E838D833FC06F817885898591
:105320009A8520E03FEF4FE757E40E9419031816D3
:105330004CF56B857C858D859E8520E030E040E2D4
:1053400051E40E941F02DC01CB01BC01CD010E948F
:105350004900DC01CB019E838D830FC088EC90E077
:105360009C838B838B819C810197F1F79C838B833A
:105370008D819E8101979E838D838D819E81009773
:1053800069F714C06F81788589859A850E944900E4
:10539000DC01CB019E838D838D819E819A838983DD
:1053A00089819A810197F1F79A83898388E30E9422
:1053B000E8298CE00E94E82981E00E94E8292E96E5
:1053C0000FB6F894DEBF0FBECDBFCF91DF91089529
:1053D000DF93CF93CDB7DEB72F970FB6F894DEBF2C
:1053E0000FBECDBF8F8783E062E040E00E94A22F16
:1053F00083E061E040E00E94A22F82E06F850E947E
:10540000B43083E060E041E00E94A22F80E090E0B1
:10541000A0E0B0E48B879C87AD87BE876B857C85D9
:105420008D859E8520E030E04AEF54E40E941F0203
:10543000DC01CB018F839887A987BA876F81788534
:1054400089859A8520E030E040E85FE30E94790397
:1054500088232CF481E090E09E838D833FC06F8190
:10546000788589859A8520E03FEF4FE757E40E94D1
:10547000190318164CF56B857C858D859E8520E07B
:1054800030E040E251E40E941F02DC01CB01BC018C
:10549000CD010E944900DC01CB019E838D830FC0AA
:1054A00088EC90E09C838B838B819C810197F1F742
:1054B0009C838B838D819E8101979E838D838D81BB
:1054C0009E81009769F714C06F81788589859A85D8
:1054D0000E944900DC01CB019E838D838D819E81DA
:1054E0009A83898389819A810197F1F79A838983C5
:1054F00083E060E040E00E94A22F2F960FB6F89460
:10550000DEBF0FBECDBFCF91DF910895DF93CF9364
:10551000CDB7DEB72F970FB6F894DEBF0FBECDBF65
:105520008F8783E062E041E00E94A22F83E061E088
:1055300040E00E94A22F82E06F850E94B43083E099
:1055400060E041E00E94A22F80E090E0A0E0B0E4A3
:105550008B879C87AD87BE876B857C858D859E8577
:1055600020E030E04AEF54E40E941F02DC01CB014E
:105570008F839887A987BA876F81788589859A856F
:1055800020E030E040E85FE30E94790388232CF4B8
:1055900081E090E09E838D833FC06F81788589850F
:1055A0009A8520E03FEF4FE757E40E941903181651
:1055B0004CF56B857C858D859E8520E030E040E252
:1055C00051E40E941F02DC01CB01BC01CD010E940D
:1055D0004900DC01CB019E838D830FC088EC90E0F5
:1055E0009C838B838B819C810197F1F79C838B83B8
:1055F0008D819E8101979E838D838D819E810097F1
:1056000069F714C06F81788589859A850E94490061
:10561000DC01CB019E838D838D819E819A8389835A
:1056200089819A810197F1F79A83898383E060E009
:1056300040E00E94A22F2F960FB6F894DEBF0FBE57
:10564000CDBFCF91DF910895DF93CF9300D000D0ED
:1056500000D0CDB7DEB79E838D8319821A821B825C
:105660001C8215C029813A818D819E81FC01E20F47
:10567000F31F80810E94862A89819A81AB81BC8137
:105680000196A11DB11D89839A83AB83BC832981B7
:105690003A818D819E81FC01E20FF31F8081882376
:1056A00009F726960FB6F894DEBF0FBECDBFCF9197
:1056B000DF910895DF93CF9300D00F92CDB7DEB77F
:1056C0008A836B838A81882319F48B81898306C03E
:1056D0008A81813019F48B81805C8983898180582B
:1056E0000E94E8290F900F900F90CF91DF910895BD
:1056F000DF93CF93CDB7DEB781E00E94E829CF9149
:10570000DF910895DF93CF93CDB7DEB727970FB61C
:10571000F894DEBF0FBECDBF9C838B836D834E8319
:105720002F831A828D81882F90E0880F991F880F10
:10573000991F880F991F89838981805C0E94E829BD
:105740001A820EC08A81282F30E08B819C81FC0157
:10575000E20FF31F80810E94862A8A818F5F8A83ED
:105760008A81883078F38E816F810E945A2B8D81D7
:105770000E94862A27960FB6F894DEBF0FBECDBFD3
:10578000CF91DF910895DF93CF93CDB7DEB76F97B9
:105790000FB6F894DEBF0FBECDBF6C8F7D8F8E8F9E
:1057A0009F8F1F828C8D9D8DAE8DBF8D89839A8337
:1057B000AB83BC838C8D9D8DAE8DBF8D0097A10575
:1057C000B10521F480E3888719867CC08C8D9D8D7E
:1057D000AE8DBF8DBB2344F58DE20E94862A8C8D51
:1057E0009D8DAE8DBF8DB095A095909581959F4F65
:1057F000AF4FBF4F8C8F9D8FAE8FBF8F15C08F81E6
:105800008F5F8F8389819A81AB81BC812AE030E0F0
:1058100040E050E0BC01CD010E94B135DA01C90180
:1058200089839A83AB83BC8389819A81AB81BC8154
:105830000097A105B10519F71D8237C08C8D9D8D8C
:10584000AE8DBF8D2AE030E040E050E0BC01CD01DC
:105850000E94D335DC01CB018E838C8D9D8DAE8D66
:10586000BF8D2AE030E040E050E0BC01CD010E9455
:10587000D335DA01C9018C8F9D8FAE8FBF8F8F8199
:10588000282F30E08D81882F90E080959095280F0B
:10589000391F8E81805D482FCE010896FC01E20FF2
:1058A000F31F40838D818F5F8D839D818F8198173A
:1058B00028F28F81282F30E0CE010896FC01E20FFC
:1058C000F31F1082CE0108960E94242B6F960FB60C
:1058D000F894DEBF0FBECDBFCF91DF910895DF9367
:1058E000CF93CDB7DEB7A3E5B0E0E3E5F0E080818C
:1058F00088608C93A3E5B0E0E3E5F0E0808180640C
:105900008C93A3E5B0E0E3E5F0E080818F7C8C939D
:10591000A3E5B0E0E3E5F0E0808180628C93A3E54D
:10592000B0E0E3E5F0E08081887F8C93A3E5B0E010
:10593000E3E5F0E0808182608C93CF91DF91089560
:10594000DF93CF930F92CDB7DEB78983ECE5F0E01C
:10595000898180830F90CF91DF910895DF93CF935A
:10596000CDB7DEB7A5E4B0E0E5E4F0E08081886083
:105970008C93A5E4B0E0E5E4F0E0808180648C9352
:10598000A5E4B0E0E5E4F0E080818F7C8C93A5E4B1
:10599000B0E0E5E4F0E0808180628C93A5E4B0E0C3
:1059A000E5E4F0E08081887F8C93A5E4B0E0E5E455
:1059B000F0E0808183608C93CF91DF910895DF9335
:1059C000CF930F92CDB7DEB78983E3E4F0E089810E
:1059D00080830F90CF91DF910895DF93CF93CDB760
:1059E000DEB7A7E2B0E0E7E2F0E080818F7B8C9346
:1059F000A7E2B0E0E7E2F0E080818F778C93A7E246
:105A0000B0E0E7E2F0E0808180628C93A6E2B0E053
:105A1000E6E2F0E08081887F8C93A6E2B0E0E6E2E7
:105A2000F0E0808187608C93A6E2B0E0E6E2F0E0EF
:105A3000808180688C93A6E2B0E0E6E2F0E08081AD
:105A40008F7D8C93CF91DF910895DF93CF93CDB766
:105A5000DEB728970FB6F894DEBF0FBECDBF8E839A
:105A600078876F831A821B821C821D821982809123
:105A70005B07882309F05EC081E080935B07A7E2A3
:105A8000B0E0E7E2F0E08081807E8C93A7E2B0E0B6
:105A9000E7E2F0E090818E81892B8C93A6E2B0E062
:105AA000E6E2F0E0808180648C930BC08A819B8168
:105AB000AC81BD810196A11DB11D8A839B83AC83FE
:105AC000BD83E6E2F0E0808182958F70882F90E0C0
:105AD00081709070009761F48A819B81AC81BD8157
